:100000000C942A000C9434000C9434000C943400AA
:100010000C9434000C9434000C9434000C94340090
:100020000C9434000C9434000C9434000C94340080
:100030000C9434000C9434000C9434000C94340070
:100040000C9434000C9434000C9434000C94340060
:100050000C94340011241FBECFE5D8E0DEBFCDBF25
:100060000E944A000C9452000C940000FC0170E0C5
:1000700020E030E020834FE38DE093E0415080406A
:100080009040E1F700C000002F5F3F4F62177307F9
:100090008CF708958FEF81BB6FE082E390E00E94C0
:0800A0003600FACFF894FFCFFF
:00000001FF
